:020000040000FA
:0400000022EF05F0F6
:10060000002020436F6E766572736F7220412F4415
:1006100000202020456E65726F2D3230323000523E
:10062000696F204361726962652000256C752E2513
:0F063000342E336C750020537563726520000003
:10064000176EF00E8116F00E9316939A9490939C69
:100650008A9A8B908A9C140E166E7A0EE82EFED71C
:10066000162EFCD7300E99EC04F0070E166E7D0E98
:10067000E82EFED7162EFCD700F0300E99EC04F0D1
:10068000210EE82EFED700F0300E99EC04F00A0E91
:10069000E82EFED7C2EC04F00009D8A452EF03F014
:1006A00054EF03F04AEF03F0320E99EC04F0C2EC81
:1006B00004F00009D8A45FEF03F061EF03F057EFF7
:1006C00003F0175099EC04F0C2EC04F00009D8A430
:1006D0006CEF03F06EEF03F064EF03F0080E99EC9B
:1006E00004F0C2EC04F00009D8A479EF03F07BEF2A
:1006F00003F071EF03F00F0E99EC04F0C2EC04F07C
:100700000009D8A486EF03F088EF03F07EEF03F032
:10071000010E99EC04F0C2EC04F00009D8A493EFA8
:1007200003F095EF03F08BEF03F0040E99EC04F067
:10073000C2EC04F00009D8A4A0EF03F0A2EF03F08C
:1007400098EF03F0800E6CEC04F0C2EC04F00009AA
:10075000D8A4ADEF03F0AFEF03F0A5EF03F00F0E59
:1007600099EC04F0120044EC05F016EC05F0C2EC34
:1007700004F00009D8A4BFEF03F0C1EF03F0B7EF16
:1007800003F0800E6CEC04F0C2EC04F00009D8A475
:10079000CCEF03F0CEEF03F0C4EF03F01F0E136EA7
:1007A000060E146E33EC04F00B0E196E260E186E46
:1007B0005E0EE82EFED7182EFCD7192EFAD7C2EC03
:1007C00004F00009D8A4E7EF03F0E9EF03F0DFEF4E
:1007D00003F0C00E6CEC04F0C2EC04F00009D8A4E5
:1007E000F4EF03F0F6EF03F0ECEF03F0360E136EC8
:1007F000060E146E33EC04F00B0E196E260E186EF6
:100800005E0EE82EFED7182EFCD7192EFAD7C2ECB2
:1008100004F00009D8A40FEF04F011EF04F007EF83
:1008200004F0010E99EC04F089B019EF04F01CEF0C
:1008300004F0010E1DEF04F0000EFF0A186E89503F
:100840001818FE0B1818896E030E196E8A0E186E92
:10085000560EE82EFED7182EFCD7192EFAD7B7EF72
:1008600003F000EF00F053EF04F0C2EC04F00009D5
:10087000D8A43DEF04F03FEF04F035EF04F013C0CF
:10088000F6FF14C0F7FFF86A050EF76403D00800FE
:10089000F55005D0F6CFE9FFF7CFEAFFEF50E5ECD2
:1008A00004F0134A142A13C0F6FF14C0F7FFF86AC5
:1008B000050EF76403D00800F55005D0F6CFE9FF28
:1008C000F7CFEAFFEF500009D8A469EF04F06BEF0F
:1008D00004F035EF04F01200156EF00E9316F00ED2
:1008E00081161550126E136A800E1212000E13122A
:1008F000040E146E133413321232142E7AEF04F0F5
:1009000012500F0B81128A9A8B903EEC05F08A8C64
:100910003EEC05F08A9CF00E811615500F0B8112EB
:100920003EEC05F08A8C3EEC05F08A9C0F0E93128B
:100930001200136EF00E9316F00E811613380F0B83
:100940000F0B81128A9A8B903EEC05F08A8C3EEC5C
:1009500005F08A9CF00E811613500F0B81123EECAD
:1009600005F08A8C3EEC05F08A9C0F0E931213045E
:10097000D8A4BDEF04F0BFEF04F0C1EF04F036ECF3
:1009800005F012008A8A8B903EEC05F08A8C3EECD2
:1009900005F081A6CEEF04F0D0EF04F0DBEF04F019
:1009A0008A9C3EEC05F08A8C3EEC05F08A9C8A9A83
:1009B000010EE4EF04F08A9C3EEC05F08A8C3EECDC
:1009C00005F08A9C8A9A000E1200126EF00E9316A1
:1009D000F00E811612380F0B0F0B81128B808A9A42
:1009E0003EEC05F08A8C3EEC05F08A9CF00E8116F8
:1009F00012500F0B81123EEC05F08A8C3EEC05F094
:100A00008A9C0F0E93121200020E896E000E8A6EDF
:100A1000000E8B6EFC0E926E936894681C0E7E6EB8
:100A20001F0E7F6E000E7C6EF18E1200280E20ECE1
:100A300003F0060E99EC04F00E0E99EC04F02DEC88
:100A400005F0120000EE01F0110EEE6AE806FDE17D
:100A5000000EF86E0001B3EF03F0070E126E7D0E6C
:100A6000E82EFED7122EFCD700F01200140E126EE4
:100A70007A0EE82EFED7122EFCD7120000F000F0FE
:100A800000F000F000F0120004EC05F049EC05F075
:0C0A90001200300ED36E000E9B6E1200A0
:020000040020DA
:08000000FFFFFFFFFFFFFFFF00
:020000040030CA
:0E000000FF021F1EFF8B81FF0FC00FE00F409D
:00000001FF
