:020000040000FA
:040000001CEF05F0FC
:10060000002020436F6E766572736F7220412F4415
:1006100000202020456E65726F2D3230323000523E
:10062000696F204361726962652000256C752E2513
:0F063000342E336C750020537563726520000003
:10064000186EF00E8116F00E9316939A9490939C68
:100650008A9A8B908A9C140E176E7A0EE82EFED71B
:10066000172EFCD7300E74EC04F0070E176E7D0EBB
:10067000E82EFED7172EFCD700F0300E74EC04F0F5
:10068000210EE82EFED700F0300E74EC04F00A0EB6
:10069000E82EFED79FEC04F00009D8A452EF03F037
:1006A00054EF03F04AEF03F0320E74EC04F09FECC9
:1006B00004F00009D8A45FEF03F061EF03F057EFF7
:1006C00003F0185074EC04F09FEC04F00009D8A477
:1006D0006CEF03F06EEF03F064EF03F0080E74ECC0
:1006E00004F09FEC04F00009D8A479EF03F07BEF4D
:1006F00003F071EF03F00F0E74EC04F09FEC04F0C4
:100700000009D8A486EF03F088EF03F07EEF03F032
:10071000010E74EC04F09FEC04F00009D8A493EFF0
:1007200003F095EF03F08BEF03F0040E74EC04F08C
:100730009FEC04F00009D8A4A0EF03F0A2EF03F0AF
:1007400098EF03F0800EC5EC04F09FEC04F0000974
:10075000D8A4ADEF03F0AFEF03F0A5EF03F00F0E59
:1007600074EC04F0018E120051EC05F02AEC05F057
:100770009FEC04F00009D8A4C0EF03F0C2EF03F02F
:10078000B8EF03F0800EC5EC04F09FEC04F0000914
:10079000D8A4CDEF03F0CFEF03F0C5EF03F01F0EA9
:1007A000166E1650D8A4060E176E39EC04F00B0E18
:1007B0001A6E260E196E5E0EE82EFED7192EFCD785
:1007C0001A2EFAD79FEC04F00009D8A4EAEF03F040
:1007D000ECEF03F0E2EF03F0C00EC5EC04F09FEC89
:1007E00004F00009D8A4F7EF03F0F9EF03F0EFEFFE
:1007F00003F0360E166E1650D8A4060E176E39EC9E
:1008000004F00B0E1A6E260E196E5E0EE82EFED741
:10081000192EFCD71A2EFAD79FEC04F00009D8A4A1
:1008200014EF04F016EF04F00CEF04F0010E74EC7A
:1008300004F089B01EEF04F021EF04F0010E22EF66
:1008400004F0000EFF0A196E89501918FE0B1918D2
:10085000896E0180030E1A6E8A0E196E560EE82EEE
:10086000FED7192EFCD71A2EFAD7B8EF03F000EFF7
:1008700000F05AEF04F09FEC04F00009D8A443EF15
:1008800004F045EF04F03BEF04F016C0F6FF17C08C
:10089000F7FFF86A050EF76403D00800F55005D09D
:1008A000F6CFE9FFF7CFEAFFEF50E9EC04F0018C57
:1008B000164A172A16C0F6FF17C0F7FFF86A050E8A
:1008C000F76403D00800F55005D0F6CFE9FFF7CF65
:1008D000EAFFEF500009D8A470EF04F072EF04F0C3
:1008E0003BEF04F0018A1200166EF00E9316F00E24
:1008F000811616380F0B0F0B81128A9A8B904AECD7
:1009000005F08A8C4AEC05F08A9CF00E8116165090
:100910000F0B81124AEC05F08A8C4AEC05F08A9C98
:100920000F0E93121604D8A498EF04F09AEF04F077
:100930009DEF04F0018641EC05F0018412008A8AE3
:100940008B904AEC05F08A8C4AEC05F081A6ABEF5F
:1009500004F0ADEF04F0B9EF04F08A9C4AEC05F026
:100960008A8C4AEC05F08A9C8A9A028C010EC3EFAD
:1009700004F08A9C4AEC05F08A8C4AEC05F08A9CCB
:100980008A9A028A000E02881200166EF00E9316E2
:10099000F00E811616C015F0800E151215380F0BCB
:1009A0000F0B81128A9A8B904AEC05F08A8C4AECE4
:1009B00005F08A9CF00E811616500F0B81124AEC3E
:1009C00005F08A8C4AEC05F08A9C0F0E9312018880
:1009D0001200156EF00E9316F00E811615380F0BDF
:1009E0000F0B81128B808A9A4AEC05F08A8C4AECB4
:1009F00005F08A9CF00E811615500F0B81124AECFF
:100A000005F08A8C4AEC05F08A9C0F0E9312018245
:100A10001200020E896E000E8A6E000E8B6EFC0EA6
:100A2000926E936894681C0E7E6E1F0E7F6E000E91
:100A30007C6EF18E028E1200036A026A016A00EE79
:100A400004F0110EEE6AE806FDE1000EF86E0001FA
:100A5000B4EF03F0280E20EC03F0060E74EC04F063
:100A60000E0E74EC04F037EC05F002801200070E55
:100A7000156E7D0EE82EFED7152EFCD700F00282F3
:100A80001200140E156E7A0EE82EFED7152EFCD726
:100A90000284120000F000F000F000F000F0028686
:100AA000120009EC05F057EC05F003821200300E3D
:0A0AB000D36E000E9B6E038012004F
:020000040020DA
:08000000FFFFFFFFFFFFFFFF00
:020000040030CA
:0E000000FF021F1EFF8B81FF0FC00FE00F409D
:00000001FF
