:020000040000FA
:04000000BEEF04F05B
:10060000002020436F6E766572736F7220412F4415
:1006100000202020456E65726F2D3230323000523E
:10062000696F204361726962652000256C752E2513
:0F063000342E336C750020537563726520000003
:10064000156EF00E8116F00E9316939A9490939C6B
:100650008A9A8B908A9C140E146E7A0EE82EFED71E
:10066000142EFCD7300E1DEC04F0070E146E7D0E18
:10067000E82EFED7142EFCD700F0300E1DEC04F04F
:10068000210EE82EFED700F0300E1DEC04F00A0E0D
:10069000E82EFED783EC04F00009D8A4FBD7320E75
:1006A0001DEC04F083EC04F00009D8A4FBD715502E
:1006B0001DEC04F083EC04F00009D8A4FBD7080E6D
:1006C0001DEC04F083EC04F00009D8A4FBD70F0E56
:1006D0001DEC04F083EC04F00009D8A4FBD7010E54
:1006E0001DEC04F083EC04F00009D8A4FBD7040E41
:1006F0001DEC04F083EC04F00009D8A4FBD7800EB5
:1007000041EC04F083EC04F00009D8A4FBD70F0EF1
:100710001DEC04F01200E0EC04F0B2EC04F083EC09
:1007200004F00009D8A4FBD7800E41EC04F083EC60
:1007300004F00009D8A4FBD71F0E136E1350D8A4E1
:10074000060E146EEFEC03F00B0E176E260E166EEF
:100750005E0EE82EFED7162EFCD7172EFAD783ECA6
:1007600004F00009D8A4FBD7C00E41EC04F083ECE0
:1007700004F00009D8A4FBD7360E136E1350D8A48A
:10078000060E146EEFEC03F00B0E176E260E166EAF
:100790005E0EE82EFED7162EFCD7172EFAD783EC66
:1007A00004F00009D8A4FBD7010E1DEC04F089A0C9
:1007B00002D0010E01D0000EFF0A166E89501618E5
:1007C000FE0B1618896E030E176E8A0E166E560EE5
:1007D000E82EFED7162EFCD7172EFAD7A0D719D0A1
:1007E00083EC04F00009D8A4FBD713C0F6FF14C0B3
:1007F000F7FFF86A050EF76403D00800F55005D03E
:10080000F6CFE9FFF7CFEAFFEF5064EC04F0134AAC
:10081000142A13C0F6FF14C0F7FFF86A050EF76438
:1008200003D00800F55005D0F6CFE9FFF7CFEAFF77
:10083000EF500009D8B41200D3D7136EF00E931600
:10084000F00E811613380F0B0F0B81128A9A8B90C2
:10085000DAEC04F08A8CDAEC04F08A9CF00E811653
:1008600013500F0B8112DAEC04F08A8CDAEC04F0EE
:100870008A9C0F0E93121304D8A41200D2EC04F039
:100880001200136EF00E9316F00E811613C012F0C4
:10089000800E121212380F0B0F0B81128A9A8B9056
:1008A000DAEC04F08A8CDAEC04F08A9CF00E811603
:1008B00013500F0B8112DAEC04F08A8CDAEC04F09E
:1008C0008A9C0F0E93121200126EF00E9316F00E09
:1008D000811612380F0B0F0B81128B808A9ADAEC7B
:1008E00004F08A8CDAEC04F08A9CF00E8116125027
:1008F0000F0B8112DAEC04F08A8CDAEC04F08A9C9B
:100900000F0E931212008A8A8B90DAEC04F08A8C14
:10091000DAEC04F081A60AD08A9CDAEC04F08A8C26
:10092000DAEC04F08A9C8A9A010E12008A9CDAECB6
:1009300004F08A8CDAEC04F08A9C8A9A000E120089
:10094000020E896E000E8A6E000E8B6EFC0E926E89
:10095000936894681C0E7E6E1F0E7F6E000E7C6E78
:10096000F18E1200280E20EC03F0060E1DEC04F0B0
:100970000E0E1DEC04F0C9EC04F0120000EE01F0C4
:10098000110EEE6AE806FDE1000EF86E00018BEF35
:1009900003F0070E126E7D0EE82EFED7122EFCD746
:1009A00000F01200140E126E7A0EE82EFED7122EF0
:1009B000FCD7120000F000F000F000F000F0120090
:1009C000A0EC04F0E5EC04F01200300ED36E000E43
:0409D0009B6E120008
:020000040020DA
:08000000FFFFFFFFFFFFFFFF00
:020000040030CA
:0E000000FF021F1EFF8B81FF0FC00FE00F409D
:00000001FF
